{
  "_format": "hh-sol-artifact-1",
  "contractName": "Lottery",
  "sourceName": "contracts/Lottery.sol",
  "abi": [
    {
      "anonymous": false,
      "inputs": [
        {
          "indexed": true,
          "internalType": "address",
          "name": "previousOwner",
          "type": "address"
        },
        {
          "indexed": true,
          "internalType": "address",
          "name": "newOwner",
          "type": "address"
        }
      ],
      "name": "OwnershipTransferred",
      "type": "event"
    },
    {
      "anonymous": false,
      "inputs": [
        {
          "indexed": false,
          "internalType": "uint256",
          "name": "rand",
          "type": "uint256"
        }
      ],
      "name": "Random",
      "type": "event"
    },
    {
      "anonymous": false,
      "inputs": [
        {
          "indexed": true,
          "internalType": "address",
          "name": "newSigner",
          "type": "address"
        }
      ],
      "name": "TrustedSignerChanged",
      "type": "event"
    },
    {
      "inputs": [
        {
          "internalType": "address",
          "name": "_trustedSigner",
          "type": "address"
        }
      ],
      "name": "authorizeSigner",
      "outputs": [],
      "stateMutability": "nonpayable",
      "type": "function"
    },
    {
      "inputs": [
        {
          "internalType": "string",
          "name": "title",
          "type": "string"
        },
        {
          "internalType": "uint256",
          "name": "ticketPrice",
          "type": "uint256"
        },
        {
          "internalType": "uint256",
          "name": "expiresAt",
          "type": "uint256"
        }
      ],
      "name": "createLottery",
      "outputs": [],
      "stateMutability": "nonpayable",
      "type": "function"
    },
    {
      "inputs": [
        {
          "internalType": "uint256",
          "name": "_id",
          "type": "uint256"
        }
      ],
      "name": "enter",
      "outputs": [],
      "stateMutability": "payable",
      "type": "function"
    },
    {
      "inputs": [
        {
          "internalType": "uint256",
          "name": "_id",
          "type": "uint256"
        }
      ],
      "name": "getLottery",
      "outputs": [
        {
          "internalType": "uint256",
          "name": "id",
          "type": "uint256"
        },
        {
          "internalType": "string",
          "name": "title",
          "type": "string"
        },
        {
          "internalType": "uint256",
          "name": "ticketPrice",
          "type": "uint256"
        },
        {
          "internalType": "uint256[]",
          "name": "luckyNumbers",
          "type": "uint256[]"
        },
        {
          "internalType": "uint256",
          "name": "participants",
          "type": "uint256"
        },
        {
          "internalType": "address",
          "name": "winner",
          "type": "address"
        },
        {
          "internalType": "bool",
          "name": "ended",
          "type": "bool"
        },
        {
          "internalType": "address",
          "name": "owner",
          "type": "address"
        },
        {
          "internalType": "uint256",
          "name": "createdAt",
          "type": "uint256"
        },
        {
          "internalType": "uint256",
          "name": "expiresAt",
          "type": "uint256"
        }
      ],
      "stateMutability": "view",
      "type": "function"
    },
    {
      "inputs": [],
      "name": "getLotteryCount",
      "outputs": [
        {
          "internalType": "uint256",
          "name": "",
          "type": "uint256"
        }
      ],
      "stateMutability": "view",
      "type": "function"
    },
    {
      "inputs": [],
      "name": "getMaxBlockTimestampDelay",
      "outputs": [
        {
          "internalType": "uint256",
          "name": "",
          "type": "uint256"
        }
      ],
      "stateMutability": "view",
      "type": "function"
    },
    {
      "inputs": [],
      "name": "getMaxDataTimestampDelay",
      "outputs": [
        {
          "internalType": "uint256",
          "name": "",
          "type": "uint256"
        }
      ],
      "stateMutability": "view",
      "type": "function"
    },
    {
      "inputs": [
        {
          "internalType": "uint256",
          "name": "_id",
          "type": "uint256"
        }
      ],
      "name": "getParticipant",
      "outputs": [
        {
          "internalType": "address",
          "name": "account",
          "type": "address"
        },
        {
          "internalType": "uint256",
          "name": "luckyNumber",
          "type": "uint256"
        },
        {
          "internalType": "bool",
          "name": "paid",
          "type": "bool"
        }
      ],
      "stateMutability": "view",
      "type": "function"
    },
    {
      "inputs": [
        {
          "internalType": "address",
          "name": "_receviedSigner",
          "type": "address"
        }
      ],
      "name": "isSignerAuthorized",
      "outputs": [
        {
          "internalType": "bool",
          "name": "",
          "type": "bool"
        }
      ],
      "stateMutability": "view",
      "type": "function"
    },
    {
      "inputs": [
        {
          "internalType": "uint256",
          "name": "_receivedTimestamp",
          "type": "uint256"
        }
      ],
      "name": "isTimestampValid",
      "outputs": [
        {
          "internalType": "bool",
          "name": "",
          "type": "bool"
        }
      ],
      "stateMutability": "view",
      "type": "function"
    },
    {
      "inputs": [],
      "name": "owner",
      "outputs": [
        {
          "internalType": "address",
          "name": "",
          "type": "address"
        }
      ],
      "stateMutability": "view",
      "type": "function"
    },
    {
      "inputs": [
        {
          "internalType": "uint256",
          "name": "_id",
          "type": "uint256"
        }
      ],
      "name": "pickWinner",
      "outputs": [],
      "stateMutability": "nonpayable",
      "type": "function"
    },
    {
      "inputs": [],
      "name": "renounceOwnership",
      "outputs": [],
      "stateMutability": "nonpayable",
      "type": "function"
    },
    {
      "inputs": [
        {
          "internalType": "address",
          "name": "newOwner",
          "type": "address"
        }
      ],
      "name": "transferOwnership",
      "outputs": [],
      "stateMutability": "nonpayable",
      "type": "function"
    }
  ],
  "bytecode": "0x608060405260006002553480156200001657600080fd5b50620000376200002b6200003d60201b60201c565b6200004560201b60201c565b62000109565b600033905090565b60008060009054906101000a900473ffffffffffffffffffffffffffffffffffffffff169050816000806101000a81548173ffffffffffffffffffffffffffffffffffffffff021916908373ffffffffffffffffffffffffffffffffffffffff1602179055508173ffffffffffffffffffffffffffffffffffffffff168173ffffffffffffffffffffffffffffffffffffffff167f8be0079c531659141344cd1fd0a4f28419497f9722a3daafe3b4186f6b6457e060405160405180910390a35050565b612d1980620001196000396000f3fe6080604052600436106100dd5760003560e01c806392e845f61161007f578063cac41f2511610059578063cac41f25146102be578063f2fde38b146102e7578063f31a210a14610310578063f737d21d1461033b576100dd565b806392e845f614610233578063a59f3e0c14610279578063bfe51c1014610295576100dd565b80635118af5a116100bb5780635118af5a14610189578063715018a6146101b457806375058205146101cb5780638da5cb5b14610208576100dd565b806311c89b10146100e25780631b9db2ef1461011f5780632f9aa1fe1461015e575b600080fd5b3480156100ee57600080fd5b5061010960048036038101906101049190611a3c565b610364565b6040516101169190611a84565b60405180910390f35b34801561012b57600080fd5b5061014660048036038101906101419190611ad5565b6103be565b60405161015593929190611b20565b60405180910390f35b34801561016a57600080fd5b50610173610423565b6040516101809190611b57565b60405180910390f35b34801561019557600080fd5b5061019e61042d565b6040516101ab9190611b57565b60405180910390f35b3480156101c057600080fd5b506101c9610436565b005b3480156101d757600080fd5b506101f260048036038101906101ed9190611ad5565b61044a565b6040516101ff9190611a84565b60405180910390f35b34801561021457600080fd5b5061021d6104c6565b60405161022a9190611b72565b60405180910390f35b34801561023f57600080fd5b5061025a60048036038101906102559190611ad5565b6104ef565b6040516102709a99989796959493929190611cdb565b60405180910390f35b610293600480360381019061028e9190611ad5565b6107b5565b005b3480156102a157600080fd5b506102bc60048036038101906102b79190611a3c565b610ad8565b005b3480156102ca57600080fd5b506102e560048036038101906102e09190611eba565b610bc2565b005b3480156102f357600080fd5b5061030e60048036038101906103099190611a3c565b610f5c565b005b34801561031c57600080fd5b50610325610fdf565b6040516103329190611b57565b60405180910390f35b34801561034757600080fd5b50610362600480360381019061035d9190611ad5565b610fe8565b005b6000600160009054906101000a900473ffffffffffffffffffffffffffffffffffffffff1673ffffffffffffffffffffffffffffffffffffffff168273ffffffffffffffffffffffffffffffffffffffff16149050919050565b6000806000806004600086815260200190815260200160002090508060000160009054906101000a900473ffffffffffffffffffffffffffffffffffffffff1681600101548260020160009054906101000a900460ff16935093509350509193909250565b6000600254905090565b6000600f905090565b61043e6111a7565b6104486000611225565b565b60008161045561042d565b426104609190611f58565b116104a0576040517f08c379a000000000000000000000000000000000000000000000000000000000815260040161049790611ffe565b60405180910390fd5b814210806104bf57506104b1610fdf565b82426104bd919061201e565b105b9050919050565b60008060009054906101000a900473ffffffffffffffffffffffffffffffffffffffff16905090565b60006060600060606000806000806000806000600360008d8152602001908152602001600020604051806101600160405290816000820154815260200160018201805461053b90612081565b80601f016020809104026020016040519081016040528092919081815260200182805461056790612081565b80156105b45780601f10610589576101008083540402835291602001916105b4565b820191906000526020600020905b81548152906001019060200180831161059757829003601f168201915b50505050508152602001600282015481526020016003820180548060200260200160405190810160405280929190818152602001828054801561061657602002820191906000526020600020905b815481526020019060010190808311610602575b505050505081526020016004820180548060200260200160405190810160405280929190818152602001828054801561066e57602002820191906000526020600020905b81548152602001906001019080831161065a575b50505050508152602001600582015481526020016006820160009054906101000a900473ffffffffffffffffffffffffffffffffffffffff1673ffffffffffffffffffffffffffffffffffffffff1673ffffffffffffffffffffffffffffffffffffffff1681526020016006820160149054906101000a900460ff161515151581526020016007820160009054906101000a900473ffffffffffffffffffffffffffffffffffffffff1673ffffffffffffffffffffffffffffffffffffffff1673ffffffffffffffffffffffffffffffffffffffff16815260200160088201548152602001600982015481525050905080600001518160200151826040015183606001518460a001518560c001518660e001518761010001518861012001518961014001519a509a509a509a509a509a509a509a509a509a50509193959799509193959799565b60006003600083815260200190815260200160002090508060070160009054906101000a900473ffffffffffffffffffffffffffffffffffffffff1673ffffffffffffffffffffffffffffffffffffffff163373ffffffffffffffffffffffffffffffffffffffff160361085e576040517f08c379a0000000000000000000000000000000000000000000000000000000008152600401610855906120fe565b60405180910390fd5b80600901546103e842610871919061211e565b10156108b2576040517f08c379a00000000000000000000000000000000000000000000000000000000081526004016108a9906121ac565b60405180910390fd5b80600201543410156108f9576040517f08c379a00000000000000000000000000000000000000000000000000000000081526004016108f090612218565b60405180910390fd5b6000808260040180548060200260200160405190810160405280929190818152602001828054801561094a57602002820191906000526020600020905b815481526020019060010190808311610936575b5050505050905060005b600084600301805490504260405160200161096f9190612259565b6040516020818303038152906040528051906020012060001c61099291906122a3565b90508460030181815481106109aa576109a96122d4565b5b906000526020600020015493506000915060005b8351811015610a0457848482815181106109db576109da6122d4565b5b6020026020010151036109f15760019250610a04565b80806109fc90612303565b9150506109be565b505080610954576000600460008781526020019081526020016000209050338160000160006101000a81548173ffffffffffffffffffffffffffffffffffffffff021916908373ffffffffffffffffffffffffffffffffffffffff16021790555083816001018190555060008160020160006101000a81548160ff021916908315150217905550846005016000815480929190610aa090612303565b919050555084600401849080600181540180825580915050600190039060005260206000200160009091909190915055505050505050565b610ae06111a7565b600073ffffffffffffffffffffffffffffffffffffffff168173ffffffffffffffffffffffffffffffffffffffff1603610b1957600080fd5b80600160006101000a81548173ffffffffffffffffffffffffffffffffffffffff021916908373ffffffffffffffffffffffffffffffffffffffff160217905550600160009054906101000a900473ffffffffffffffffffffffffffffffffffffffff1673ffffffffffffffffffffffffffffffffffffffff167ffc34663d6e481c3ed985715061d3e369aa003416efd09293880e20cf2e8f53b560405160405180910390a250565b6000835111610c06576040517f08c379a0000000000000000000000000000000000000000000000000000000008152600401610bfd90612397565b60405180910390fd5b60008211610c49576040517f08c379a0000000000000000000000000000000000000000000000000000000008152600401610c4090612403565b60405180910390fd5b428111610c8b576040517f08c379a0000000000000000000000000000000000000000000000000000000008152600401610c8290612495565b60405180910390fd5b6000610c956112e9565b90506000600a67ffffffffffffffff811115610cb457610cb3611d8f565b5b604051908082528060200260200182016040528015610ce25781602001602082028036833780820191505090505b50905060006103e8905060005b600a811015610d6d576001828583604051602001610d0e9291906124b5565b6040516020818303038152906040528051906020012060001c610d3191906122a3565b610d3b9190611f58565b838281518110610d4e57610d4d6122d4565b5b6020026020010181815250508080610d6590612303565b915050610cef565b50610d766118d8565b600254816000018181525050868160200181905250828160600181905250858160400181815250503381610100019073ffffffffffffffffffffffffffffffffffffffff16908173ffffffffffffffffffffffffffffffffffffffff168152505042816101200181815250508481610140018181525050806003600083600001518152602001908152602001600020600082015181600001556020820151816001019081610e24919061268a565b50604082015181600201556060820151816003019080519060200190610e4b929190611960565b506080820151816004019080519060200190610e68929190611960565b5060a0820151816005015560c08201518160060160006101000a81548173ffffffffffffffffffffffffffffffffffffffff021916908373ffffffffffffffffffffffffffffffffffffffff16021790555060e08201518160060160146101000a81548160ff0219169083151502179055506101008201518160070160006101000a81548173ffffffffffffffffffffffffffffffffffffffff021916908373ffffffffffffffffffffffffffffffffffffffff1602179055506101208201518160080155610140820151816009015590505060026000815480929190610f4e90612303565b919050555050505050505050565b610f646111a7565b600073ffffffffffffffffffffffffffffffffffffffff168173ffffffffffffffffffffffffffffffffffffffff1603610fd3576040517f08c379a0000000000000000000000000000000000000000000000000000000008152600401610fca906127ce565b60405180910390fd5b610fdc81611225565b50565b600060b4905090565b6000600360008381526020019081526020016000209050600081600501548260020154611015919061211e565b905060008260040180549050426040516020016110329190612259565b6040516020818303038152906040528051906020012060001c61105591906122a3565b90506004600085815260200190815260200160002060000160009054906101000a900473ffffffffffffffffffffffffffffffffffffffff1673ffffffffffffffffffffffffffffffffffffffff166108fc839081150290604051600060405180830381858888f193505050501580156110d3573d6000803e3d6000fd5b506004600085815260200190815260200160002060000160009054906101000a900473ffffffffffffffffffffffffffffffffffffffff168360060160006101000a81548173ffffffffffffffffffffffffffffffffffffffff021916908373ffffffffffffffffffffffffffffffffffffffff16021790555060018360060160146101000a81548160ff0219169083151502179055507fbcf69e7223438137d9099bb71b1772c3eb2a5a8840750b247913cd6fd4d249d5816040516111999190611b57565b60405180910390a150505050565b6111af611368565b73ffffffffffffffffffffffffffffffffffffffff166111cd6104c6565b73ffffffffffffffffffffffffffffffffffffffff1614611223576040517f08c379a000000000000000000000000000000000000000000000000000000000815260040161121a9061283a565b60405180910390fd5b565b60008060009054906101000a900473ffffffffffffffffffffffffffffffffffffffff169050816000806101000a81548173ffffffffffffffffffffffffffffffffffffffff021916908373ffffffffffffffffffffffffffffffffffffffff1602179055508173ffffffffffffffffffffffffffffffffffffffff168173ffffffffffffffffffffffffffffffffffffffff167f8be0079c531659141344cd1fd0a4f28419497f9722a3daafe3b4186f6b6457e060405160405180910390a35050565b6000806113157f454e54524f505900000000000000000000000000000000000000000000000000611370565b9050806103e842611326919061285a565b600143611333919061201e565b40434060405160200161134994939291906128b6565b6040516020818303038152906040528051906020012060001c91505090565b600033905090565b600080600167ffffffffffffffff81111561138e5761138d611d8f565b5b6040519080825280602002602001820160405280156113bc5781602001602082028036833780820191505090505b50905082816000815181106113d4576113d36122d4565b5b6020026020010181815250506113e98161140c565b6000815181106113fc576113fb6122d4565b5b6020026020010151915050919050565b60606000606136033590506000602060408360ff1661142b9190612912565b611435919061294f565b9050606060405190508181528160428301360360208301376020810160405260008180519060200120905060008160405160200161147391906129dc565b6040516020818303038152906040528051906020012090506060604051905060418152604180360360208301376020810160405260006114bc828461157490919063ffffffff16565b90506114c781610364565b611506576040517f08c379a00000000000000000000000000000000000000000000000000000000081526004016114fd90612a4e565b60405180910390fd5b6000606236033590506115188161044a565b611557576040517f08c379a000000000000000000000000000000000000000000000000000000000815260040161154e90612aba565b60405180910390fd5b6115658a8960ff168961159b565b98505050505050505050919050565b6000806000611583858561163f565b9150915061159081611690565b819250505092915050565b6060806000806000806042870136035995508951865260208a51026020870101604052600094505b895185101561162f576020850260208b0101519150600093505b888410156116245781604085028201350361160d5760206040850282010135602086026020880101526001830192505b89518303611619578894505b6001840193506115dd565b6001850194506115c3565b5084955050505050509392505050565b60008060418351036116805760008060006020860151925060408601519150606086015160001a9050611674878285856117f6565b94509450505050611689565b60006002915091505b9250929050565b600060048111156116a4576116a3612ada565b5b8160048111156116b7576116b6612ada565b5b03156117f357600160048111156116d1576116d0612ada565b5b8160048111156116e4576116e3612ada565b5b03611724576040517f08c379a000000000000000000000000000000000000000000000000000000000815260040161171b90612b55565b60405180910390fd5b6002600481111561173857611737612ada565b5b81600481111561174b5761174a612ada565b5b0361178b576040517f08c379a000000000000000000000000000000000000000000000000000000000815260040161178290612bc1565b60405180910390fd5b6003600481111561179f5761179e612ada565b5b8160048111156117b2576117b1612ada565b5b036117f2576040517f08c379a00000000000000000000000000000000000000000000000000000000081526004016117e990612c53565b60405180910390fd5b5b50565b6000807f7fffffffffffffffffffffffffffffff5d576e7357a4501ddfe92f46681b20a08360001c11156118315760006003915091506118cf565b6000600187878787604051600081526020016040526040516118569493929190612c9e565b6020604051602081039080840390855afa158015611878573d6000803e3d6000fd5b505050602060405103519050600073ffffffffffffffffffffffffffffffffffffffff168173ffffffffffffffffffffffffffffffffffffffff16036118c6576000600192509250506118cf565b80600092509250505b94509492505050565b604051806101600160405280600081526020016060815260200160008152602001606081526020016060815260200160008152602001600073ffffffffffffffffffffffffffffffffffffffff168152602001600015158152602001600073ffffffffffffffffffffffffffffffffffffffff16815260200160008152602001600081525090565b82805482825590600052602060002090810192821561199c579160200282015b8281111561199b578251825591602001919060010190611980565b5b5090506119a991906119ad565b5090565b5b808211156119c65760008160009055506001016119ae565b5090565b6000604051905090565b600080fd5b600080fd5b600073ffffffffffffffffffffffffffffffffffffffff82169050919050565b6000611a09826119de565b9050919050565b611a19816119fe565b8114611a2457600080fd5b50565b600081359050611a3681611a10565b92915050565b600060208284031215611a5257611a516119d4565b5b6000611a6084828501611a27565b91505092915050565b60008115159050919050565b611a7e81611a69565b82525050565b6000602082019050611a996000830184611a75565b92915050565b6000819050919050565b611ab281611a9f565b8114611abd57600080fd5b50565b600081359050611acf81611aa9565b92915050565b600060208284031215611aeb57611aea6119d4565b5b6000611af984828501611ac0565b91505092915050565b611b0b816119fe565b82525050565b611b1a81611a9f565b82525050565b6000606082019050611b356000830186611b02565b611b426020830185611b11565b611b4f6040830184611a75565b949350505050565b6000602082019050611b6c6000830184611b11565b92915050565b6000602082019050611b876000830184611b02565b92915050565b600081519050919050565b600082825260208201905092915050565b60005b83811015611bc7578082015181840152602081019050611bac565b60008484015250505050565b6000601f19601f8301169050919050565b6000611bef82611b8d565b611bf98185611b98565b9350611c09818560208601611ba9565b611c1281611bd3565b840191505092915050565b600081519050919050565b600082825260208201905092915050565b6000819050602082019050919050565b611c5281611a9f565b82525050565b6000611c648383611c49565b60208301905092915050565b6000602082019050919050565b6000611c8882611c1d565b611c928185611c28565b9350611c9d83611c39565b8060005b83811015611cce578151611cb58882611c58565b9750611cc083611c70565b925050600181019050611ca1565b5085935050505092915050565b600061014082019050611cf1600083018d611b11565b8181036020830152611d03818c611be4565b9050611d12604083018b611b11565b8181036060830152611d24818a611c7d565b9050611d336080830189611b11565b611d4060a0830188611b02565b611d4d60c0830187611a75565b611d5a60e0830186611b02565b611d68610100830185611b11565b611d76610120830184611b11565b9b9a5050505050505050505050565b600080fd5b600080fd5b7f4e487b7100000000000000000000000000000000000000000000000000000000600052604160045260246000fd5b611dc782611bd3565b810181811067ffffffffffffffff82111715611de657611de5611d8f565b5b80604052505050565b6000611df96119ca565b9050611e058282611dbe565b919050565b600067ffffffffffffffff821115611e2557611e24611d8f565b5b611e2e82611bd3565b9050602081019050919050565b82818337600083830152505050565b6000611e5d611e5884611e0a565b611def565b905082815260208101848484011115611e7957611e78611d8a565b5b611e84848285611e3b565b509392505050565b600082601f830112611ea157611ea0611d85565b5b8135611eb1848260208601611e4a565b91505092915050565b600080600060608486031215611ed357611ed26119d4565b5b600084013567ffffffffffffffff811115611ef157611ef06119d9565b5b611efd86828701611e8c565b9350506020611f0e86828701611ac0565b9250506040611f1f86828701611ac0565b9150509250925092565b7f4e487b7100000000000000000000000000000000000000000000000000000000600052601160045260246000fd5b6000611f6382611a9f565b9150611f6e83611a9f565b9250828201905080821115611f8657611f85611f29565b5b92915050565b7f446174612077697468206675747572652074696d657374616d7073206973206e60008201527f6f7420616c6c6f77656400000000000000000000000000000000000000000000602082015250565b6000611fe8602a83611b98565b9150611ff382611f8c565b604082019050919050565b6000602082019050818103600083015261201781611fdb565b9050919050565b600061202982611a9f565b915061203483611a9f565b925082820390508181111561204c5761204b611f29565b5b92915050565b7f4e487b7100000000000000000000000000000000000000000000000000000000600052602260045260246000fd5b6000600282049050600182168061209957607f821691505b6020821081036120ac576120ab612052565b5b50919050565b7f4f776e65722063616e2774207061727469636970617465000000000000000000600082015250565b60006120e8601783611b98565b91506120f3826120b2565b602082019050919050565b60006020820190508181036000830152612117816120db565b9050919050565b600061212982611a9f565b915061213483611a9f565b925082820261214281611a9f565b9150828204841483151761215957612158611f29565b5b5092915050565b7f456e642074696d65207265616368656400000000000000000000000000000000600082015250565b6000612196601083611b98565b91506121a182612160565b602082019050919050565b600060208201905081810360008301526121c581612189565b9050919050565b7f696e73756666696369656e74207061796d656e74000000000000000000000000600082015250565b6000612202601483611b98565b915061220d826121cc565b602082019050919050565b60006020820190508181036000830152612231816121f5565b9050919050565b6000819050919050565b61225361224e82611a9f565b612238565b82525050565b60006122658284612242565b60208201915081905092915050565b7f4e487b7100000000000000000000000000000000000000000000000000000000600052601260045260246000fd5b60006122ae82611a9f565b91506122b983611a9f565b9250826122c9576122c8612274565b5b828206905092915050565b7f4e487b7100000000000000000000000000000000000000000000000000000000600052603260045260246000fd5b600061230e82611a9f565b91507fffffffffffffffffffffffffffffffffffffffffffffffffffffffffffffffff82036123405761233f611f29565b5b600182019050919050565b7f5469746c652063616e277420626520656d707479000000000000000000000000600082015250565b6000612381601483611b98565b915061238c8261234b565b602082019050919050565b600060208201905081810360008301526123b081612374565b9050919050565b7f5469636b65742050726963652063616e6e6f74206265207a65726f0000000000600082015250565b60006123ed601b83611b98565b91506123f8826123b7565b602082019050919050565b6000602082019050818103600083015261241c816123e0565b9050919050565b7f45787069726174696f6e20646174652063616e6e6f74206265206c657373207460008201527f68616e2074686520667574757265000000000000000000000000000000000000602082015250565b600061247f602e83611b98565b915061248a82612423565b604082019050919050565b600060208201905081810360008301526124ae81612472565b9050919050565b60006040820190506124ca6000830185611b11565b6124d76020830184611b11565b9392505050565b60008190508160005260206000209050919050565b60006020601f8301049050919050565b600082821b905092915050565b6000600883026125407fffffffffffffffffffffffffffffffffffffffffffffffffffffffffffffffff82612503565b61254a8683612503565b95508019841693508086168417925050509392505050565b6000819050919050565b600061258761258261257d84611a9f565b612562565b611a9f565b9050919050565b6000819050919050565b6125a18361256c565b6125b56125ad8261258e565b848454612510565b825550505050565b600090565b6125ca6125bd565b6125d5818484612598565b505050565b5b818110156125f9576125ee6000826125c2565b6001810190506125db565b5050565b601f82111561263e5761260f816124de565b612618846124f3565b81016020851015612627578190505b61263b612633856124f3565b8301826125da565b50505b505050565b600082821c905092915050565b600061266160001984600802612643565b1980831691505092915050565b600061267a8383612650565b9150826002028217905092915050565b61269382611b8d565b67ffffffffffffffff8111156126ac576126ab611d8f565b5b6126b68254612081565b6126c18282856125fd565b600060209050601f8311600181146126f457600084156126e2578287015190505b6126ec858261266e565b865550612754565b601f198416612702866124de565b60005b8281101561272a57848901518255600182019150602085019450602081019050612705565b868310156127475784890151612743601f891682612650565b8355505b6001600288020188555050505b505050505050565b7f4f776e61626c653a206e6577206f776e657220697320746865207a65726f206160008201527f6464726573730000000000000000000000000000000000000000000000000000602082015250565b60006127b8602683611b98565b91506127c38261275c565b604082019050919050565b600060208201905081810360008301526127e7816127ab565b9050919050565b7f4f776e61626c653a2063616c6c6572206973206e6f7420746865206f776e6572600082015250565b6000612824602083611b98565b915061282f826127ee565b602082019050919050565b6000602082019050818103600083015261285381612817565b9050919050565b600061286582611a9f565b915061287083611a9f565b9250826128805761287f612274565b5b828204905092915050565b6000819050919050565b6000819050919050565b6128b06128ab8261288b565b612895565b82525050565b60006128c28287612242565b6020820191506128d28286612242565b6020820191506128e2828561289f565b6020820191506128f2828461289f565b60208201915081905095945050505050565b600061ffff82169050919050565b600061291d82612904565b915061292883612904565b925082820261293681612904565b915080821461294857612947611f29565b5b5092915050565b600061295a82612904565b915061296583612904565b9250828201905061ffff81111561297f5761297e611f29565b5b92915050565b600081905092915050565b7f19457468657265756d205369676e6564204d6573736167653a0a333200000000600082015250565b60006129c6601c83612985565b91506129d182612990565b601c82019050919050565b60006129e7826129b9565b91506129f3828461289f565b60208201915081905092915050565b7f5369676e6572206e6f7420617574686f72697a65640000000000000000000000600082015250565b6000612a38601583611b98565b9150612a4382612a02565b602082019050919050565b60006020820190508181036000830152612a6781612a2b565b9050919050565b7f446174612074696d657374616d7020697320696e76616c696400000000000000600082015250565b6000612aa4601983611b98565b9150612aaf82612a6e565b602082019050919050565b60006020820190508181036000830152612ad381612a97565b9050919050565b7f4e487b7100000000000000000000000000000000000000000000000000000000600052602160045260246000fd5b7f45434453413a20696e76616c6964207369676e61747572650000000000000000600082015250565b6000612b3f601883611b98565b9150612b4a82612b09565b602082019050919050565b60006020820190508181036000830152612b6e81612b32565b9050919050565b7f45434453413a20696e76616c6964207369676e6174757265206c656e67746800600082015250565b6000612bab601f83611b98565b9150612bb682612b75565b602082019050919050565b60006020820190508181036000830152612bda81612b9e565b9050919050565b7f45434453413a20696e76616c6964207369676e6174757265202773272076616c60008201527f7565000000000000000000000000000000000000000000000000000000000000602082015250565b6000612c3d602283611b98565b9150612c4882612be1565b604082019050919050565b60006020820190508181036000830152612c6c81612c30565b9050919050565b612c7c8161288b565b82525050565b600060ff82169050919050565b612c9881612c82565b82525050565b6000608082019050612cb36000830187612c73565b612cc06020830186612c8f565b612ccd6040830185612c73565b612cda6060830184612c73565b9594505050505056fea26469706673582212200af16c4d45444ddbfca348629003a121967397979440e48b7c3bd2b64ff5060764736f6c63430008110033",
  "linkReferences": {},
  "deployedLinkReferences": {}
}