{
  "_format": "hh-sol-artifact-1",
  "contractName": "TalentMarketPlace",
  "sourceName": "contracts/TalentMarketPlace.sol",
  "abi": [
    {
      "inputs": [
        {
          "internalType": "uint256",
          "name": "_index",
          "type": "uint256"
        },
        {
          "internalType": "address",
          "name": "_vendorAddress",
          "type": "address"
        }
      ],
      "name": "cancelService",
      "outputs": [],
      "stateMutability": "nonpayable",
      "type": "function"
    },
    {
      "inputs": [
        {
          "internalType": "uint256",
          "name": "_index",
          "type": "uint256"
        },
        {
          "internalType": "address",
          "name": "_vendorAddress",
          "type": "address"
        }
      ],
      "name": "confirmService",
      "outputs": [],
      "stateMutability": "nonpayable",
      "type": "function"
    },
    {
      "inputs": [
        {
          "internalType": "uint256",
          "name": "vendorIndex",
          "type": "uint256"
        },
        {
          "internalType": "address payable",
          "name": "vendor",
          "type": "address"
        }
      ],
      "name": "createTransaction",
      "outputs": [],
      "stateMutability": "payable",
      "type": "function"
    },
    {
      "inputs": [
        {
          "internalType": "string",
          "name": "_businessName",
          "type": "string"
        },
        {
          "internalType": "string",
          "name": "_profession",
          "type": "string"
        },
        {
          "internalType": "string",
          "name": "_filePath",
          "type": "string"
        },
        {
          "internalType": "string",
          "name": "_description",
          "type": "string"
        },
        {
          "internalType": "uint256",
          "name": "_price",
          "type": "uint256"
        }
      ],
      "name": "createVendor",
      "outputs": [],
      "stateMutability": "nonpayable",
      "type": "function"
    },
    {
      "inputs": [],
      "name": "getBal",
      "outputs": [
        {
          "internalType": "uint256",
          "name": "",
          "type": "uint256"
        }
      ],
      "stateMutability": "view",
      "type": "function"
    },
    {
      "inputs": [],
      "name": "getTransactionCount",
      "outputs": [
        {
          "internalType": "uint256",
          "name": "",
          "type": "uint256"
        }
      ],
      "stateMutability": "view",
      "type": "function"
    },
    {
      "inputs": [
        {
          "internalType": "uint256",
          "name": "_index",
          "type": "uint256"
        },
        {
          "internalType": "address",
          "name": "_customerAddress",
          "type": "address"
        }
      ],
      "name": "getTransactions",
      "outputs": [
        {
          "internalType": "uint256",
          "name": "transactionIndex",
          "type": "uint256"
        },
        {
          "internalType": "uint256",
          "name": "vendorIndex",
          "type": "uint256"
        },
        {
          "internalType": "address",
          "name": "vendor",
          "type": "address"
        },
        {
          "internalType": "address",
          "name": "customer",
          "type": "address"
        },
        {
          "internalType": "uint256",
          "name": "amount",
          "type": "uint256"
        },
        {
          "internalType": "enum TalentMarketPlace.Status",
          "name": "status",
          "type": "uint8"
        },
        {
          "internalType": "uint256",
          "name": "dateCreated",
          "type": "uint256"
        },
        {
          "internalType": "uint256",
          "name": "dateCompleted",
          "type": "uint256"
        },
        {
          "internalType": "uint256",
          "name": "dateReviewing",
          "type": "uint256"
        },
        {
          "internalType": "string",
          "name": "filePath",
          "type": "string"
        },
        {
          "internalType": "string",
          "name": "businessName",
          "type": "string"
        }
      ],
      "stateMutability": "view",
      "type": "function"
    },
    {
      "inputs": [],
      "name": "getVendorCount",
      "outputs": [
        {
          "internalType": "uint256",
          "name": "",
          "type": "uint256"
        }
      ],
      "stateMutability": "view",
      "type": "function"
    },
    {
      "inputs": [],
      "name": "getVendorTransactionCount",
      "outputs": [
        {
          "internalType": "uint256",
          "name": "",
          "type": "uint256"
        }
      ],
      "stateMutability": "view",
      "type": "function"
    },
    {
      "inputs": [
        {
          "internalType": "uint256",
          "name": "_index",
          "type": "uint256"
        },
        {
          "internalType": "address",
          "name": "_vendorAddress",
          "type": "address"
        }
      ],
      "name": "getVendorTransactions",
      "outputs": [
        {
          "internalType": "uint256",
          "name": "transactionIndex",
          "type": "uint256"
        },
        {
          "internalType": "address",
          "name": "customer",
          "type": "address"
        },
        {
          "internalType": "enum TalentMarketPlace.Status",
          "name": "status",
          "type": "uint8"
        },
        {
          "internalType": "uint256",
          "name": "dateCreated",
          "type": "uint256"
        },
        {
          "internalType": "uint256",
          "name": "dateCompleted",
          "type": "uint256"
        }
      ],
      "stateMutability": "view",
      "type": "function"
    },
    {
      "inputs": [
        {
          "internalType": "uint256",
          "name": "_index",
          "type": "uint256"
        }
      ],
      "name": "getVendors",
      "outputs": [
        {
          "internalType": "uint256",
          "name": "id",
          "type": "uint256"
        },
        {
          "internalType": "address",
          "name": "vendorAddress",
          "type": "address"
        },
        {
          "internalType": "string",
          "name": "businessName",
          "type": "string"
        },
        {
          "internalType": "string",
          "name": "filePath",
          "type": "string"
        },
        {
          "internalType": "string",
          "name": "description",
          "type": "string"
        },
        {
          "internalType": "string",
          "name": "profession",
          "type": "string"
        },
        {
          "internalType": "uint256",
          "name": "price",
          "type": "uint256"
        },
        {
          "internalType": "uint256",
          "name": "totalAmount",
          "type": "uint256"
        },
        {
          "internalType": "uint256",
          "name": "transCount",
          "type": "uint256"
        },
        {
          "internalType": "int256",
          "name": "rating",
          "type": "int256"
        }
      ],
      "stateMutability": "view",
      "type": "function"
    },
    {
      "inputs": [],
      "name": "refundInProgressTransactions",
      "outputs": [],
      "stateMutability": "nonpayable",
      "type": "function"
    },
    {
      "inputs": [],
      "name": "refundReviewTransactions",
      "outputs": [],
      "stateMutability": "nonpayable",
      "type": "function"
    },
    {
      "inputs": [
        {
          "internalType": "uint256",
          "name": "_index",
          "type": "uint256"
        },
        {
          "internalType": "address",
          "name": "_customerAddress",
          "type": "address"
        }
      ],
      "name": "serviceReviewing",
      "outputs": [],
      "stateMutability": "nonpayable",
      "type": "function"
    },
    {
      "inputs": [
        {
          "internalType": "uint256",
          "name": "_index",
          "type": "uint256"
        },
        {
          "internalType": "address",
          "name": "_customerAddress",
          "type": "address"
        }
      ],
      "name": "vendorCancelService",
      "outputs": [],
      "stateMutability": "nonpayable",
      "type": "function"
    },
    {
      "inputs": [],
      "name": "vendorCount",
      "outputs": [
        {
          "internalType": "uint256",
          "name": "",
          "type": "uint256"
        }
      ],
      "stateMutability": "view",
      "type": "function"
    },
    {
      "inputs": [
        {
          "internalType": "address",
          "name": "",
          "type": "address"
        }
      ],
      "name": "vendorExists",
      "outputs": [
        {
          "internalType": "bool",
          "name": "",
          "type": "bool"
        }
      ],
      "stateMutability": "view",
      "type": "function"
    }
  ],
  "bytecode": "0x608060405234801561001057600080fd5b50613e99806100206000396000f3fe6080604052600436106100fe5760003560e01c80637f39836811610095578063a3ac561711610064578063a3ac561714610324578063ac4caef01461033b578063dd970f1014610364578063df6403fa146103aa578063e2a80b1a146103d3576100fe565b80637f3983681461028c5780638858287b146102b75780639a6239d8146102e2578063a12eba7c146102f9576100fe565b80633e6dbf55116100d15780633e6dbf55146101ab5780633f1f2d24146101ec5780635c058738146102335780637cf4c54314610270576100fe565b806325caa262146101035780632e7700f01461012e57806339213d32146101595780633aeae64d14610182575b600080fd5b34801561010f57600080fd5b506101186103fc565b6040516101259190612ad6565b60405180910390f35b34801561013a57600080fd5b50610143610404565b6040516101509190612ad6565b60405180910390f35b34801561016557600080fd5b50610180600480360381019061017b9190612b8f565b61044b565b005b34801561018e57600080fd5b506101a960048036038101906101a49190612b8f565b61080f565b005b3480156101b757600080fd5b506101d260048036038101906101cd9190612b8f565b610a6b565b6040516101e3959493929190612c55565b60405180910390f35b3480156101f857600080fd5b50610213600480360381019061020e9190612b8f565b610bc0565b60405161022a9b9a99989796959493929190612d38565b60405180910390f35b34801561023f57600080fd5b5061025a60048036038101906102559190612df1565b610e0d565b6040516102679190612e39565b60405180910390f35b61028a60048036038101906102859190612e92565b610e2d565b005b34801561029857600080fd5b506102a161142a565b6040516102ae9190612ad6565b60405180910390f35b3480156102c357600080fd5b506102cc611471565b6040516102d99190612ad6565b60405180910390f35b3480156102ee57600080fd5b506102f7611477565b005b34801561030557600080fd5b5061030e6118e0565b60405161031b9190612ad6565b60405180910390f35b34801561033057600080fd5b506103396118ea565b005b34801561034757600080fd5b50610362600480360381019061035d9190612b8f565b611d8b565b005b34801561037057600080fd5b5061038b60048036038101906103869190612ed2565b612065565b6040516103a19a99989796959493929190612f18565b60405180910390f35b3480156103b657600080fd5b506103d160048036038101906103cc9190613105565b612327565b005b3480156103df57600080fd5b506103fa60048036038101906103f59190612b8f565b6124ff565b005b600047905090565b6000600260003373ffffffffffffffffffffffffffffffffffffffff1673ffffffffffffffffffffffffffffffffffffffff16815260200190815260200160002054905090565b6000600460003373ffffffffffffffffffffffffffffffffffffffff1673ffffffffffffffffffffffffffffffffffffffff168152602001908152602001600020838154811061049e5761049d6131f0565b5b906000526020600020906008020190506000600560008473ffffffffffffffffffffffffffffffffffffffff1673ffffffffffffffffffffffffffffffffffffffff1681526020019081526020016000208481548110610501576105006131f0565b5b906000526020600020906005020190503373ffffffffffffffffffffffffffffffffffffffff168260020160009054906101000a900473ffffffffffffffffffffffffffffffffffffffff1673ffffffffffffffffffffffffffffffffffffffff16146105a3576040517f08c379a000000000000000000000000000000000000000000000000000000000815260040161059a90613291565b60405180910390fd5b600260038111156105b7576105b6612bde565b5b8260040160009054906101000a900460ff1660038111156105db576105da612bde565b5b148061061c5750600160038111156105f6576105f5612bde565b5b8260040160009054906101000a900460ff16600381111561061a57610619612bde565b5b145b61065b576040517f08c379a000000000000000000000000000000000000000000000000000000000815260040161065290613323565b60405180910390fd5b60008373ffffffffffffffffffffffffffffffffffffffff16836003015460405161068590613374565b60006040518083038185875af1925050503d80600081146106c2576040519150601f19603f3d011682016040523d82523d6000602084013e6106c7565b606091505b505090508061070b576040517f08c379a0000000000000000000000000000000000000000000000000000000008152600401610702906133d5565b60405180910390fd5b60038081111561071e5761071d612bde565b5b8360040160006101000a81548160ff0219169083600381111561074457610743612bde565b5b021790555042836006018190555060038081111561076557610764612bde565b5b8260010160146101000a81548160ff0219169083600381111561078b5761078a612bde565b5b021790555042826004018190555060006006600085600001548152602001908152602001600020905083600301548160060160008282546107cc9190613424565b925050819055508060070160008154809291906107e890613458565b9190505550806008016000815480929190610802906134a0565b9190505550505050505050565b6000600460008373ffffffffffffffffffffffffffffffffffffffff1673ffffffffffffffffffffffffffffffffffffffff1681526020019081526020016000208381548110610862576108616131f0565b5b906000526020600020906008020190506000600560003373ffffffffffffffffffffffffffffffffffffffff1673ffffffffffffffffffffffffffffffffffffffff16815260200190815260200160002084815481106108c5576108c46131f0565b5b906000526020600020906005020190503373ffffffffffffffffffffffffffffffffffffffff168260010160009054906101000a900473ffffffffffffffffffffffffffffffffffffffff1673ffffffffffffffffffffffffffffffffffffffff1614610967576040517f08c379a000000000000000000000000000000000000000000000000000000000815260040161095e9061355a565b60405180910390fd5b60038081111561097a57610979612bde565b5b8260040160009054906101000a900460ff16600381111561099e5761099d612bde565b5b036109de576040517f08c379a00000000000000000000000000000000000000000000000000000000081526004016109d5906135ec565b60405180910390fd5b600260038111156109f2576109f1612bde565b5b8260040160006101000a81548160ff02191690836003811115610a1857610a17612bde565b5b021790555042826007018190555060026003811115610a3a57610a39612bde565b5b8160010160146101000a81548160ff02191690836003811115610a6057610a5f612bde565b5b021790555050505050565b600080600080600060011515600760008873ffffffffffffffffffffffffffffffffffffffff1673ffffffffffffffffffffffffffffffffffffffff16815260200190815260200160002060009054906101000a900460ff16151514610b06576040517f08c379a0000000000000000000000000000000000000000000000000000000008152600401610afd90613658565b60405180910390fd5b6000600560008873ffffffffffffffffffffffffffffffffffffffff1673ffffffffffffffffffffffffffffffffffffffff1681526020019081526020016000208881548110610b5957610b586131f0565b5b90600052602060002090600502019050878160010160009054906101000a900473ffffffffffffffffffffffffffffffffffffffff168260010160149054906101000a900460ff168360030154846004015495509550955095509550509295509295909350565b60008060008060008060008060006060806000600460008e73ffffffffffffffffffffffffffffffffffffffff1673ffffffffffffffffffffffffffffffffffffffff1681526020019081526020016000208e81548110610c2457610c236131f0565b5b906000526020600020906008020190506000600660008360000154815260200190815260200160002090508e82600001548360010160009054906101000a900473ffffffffffffffffffffffffffffffffffffffff168460020160009054906101000a900473ffffffffffffffffffffffffffffffffffffffff1685600301548660040160009054906101000a900460ff16876005015488600601548960070154896003018a600101818054610cd9906136a7565b80601f0160208091040260200160405190810160405280929190818152602001828054610d05906136a7565b8015610d525780601f10610d2757610100808354040283529160200191610d52565b820191906000526020600020905b815481529060010190602001808311610d3557829003601f168201915b50505050509150808054610d65906136a7565b80601f0160208091040260200160405190810160405280929190818152602001828054610d91906136a7565b8015610dde5780601f10610db357610100808354040283529160200191610dde565b820191906000526020600020905b815481529060010190602001808311610dc157829003601f168201915b505050505090509c509c509c509c509c509c509c509c509c509c509c5050509295989b509295989b9093969950565b60076020528060005260406000206000915054906101000a900460ff1681565b600154821115610e72576040517f08c379a0000000000000000000000000000000000000000000000000000000008152600401610e6990613724565b60405180910390fd5b3373ffffffffffffffffffffffffffffffffffffffff168173ffffffffffffffffffffffffffffffffffffffff1603610ee0576040517f08c379a0000000000000000000000000000000000000000000000000000000008152600401610ed790613790565b60405180910390fd5b600060066000848152602001908152602001600020905034816005015414610f3d576040517f08c379a0000000000000000000000000000000000000000000000000000000008152600401610f34906137fc565b60405180910390fd5b8173ffffffffffffffffffffffffffffffffffffffff168160000160009054906101000a900473ffffffffffffffffffffffffffffffffffffffff1673ffffffffffffffffffffffffffffffffffffffff1614610fcf576040517f08c379a0000000000000000000000000000000000000000000000000000000008152600401610fc690613868565b60405180910390fd5b600060016003811115610fe557610fe4612bde565b5b9050600460003373ffffffffffffffffffffffffffffffffffffffff1673ffffffffffffffffffffffffffffffffffffffff1681526020019081526020016000206040518061010001604052808681526020018573ffffffffffffffffffffffffffffffffffffffff1681526020013373ffffffffffffffffffffffffffffffffffffffff16815260200134815260200183600381111561108957611088612bde565b5b815260200142815260200160008152602001600081525090806001815401808255809150506001900390600052602060002090600802016000909190919091506000820151816000015560208201518160010160006101000a81548173ffffffffffffffffffffffffffffffffffffffff021916908373ffffffffffffffffffffffffffffffffffffffff16021790555060408201518160020160006101000a81548173ffffffffffffffffffffffffffffffffffffffff021916908373ffffffffffffffffffffffffffffffffffffffff1602179055506060820151816003015560808201518160040160006101000a81548160ff0219169083600381111561119657611195612bde565b5b021790555060a0820151816005015560c0820151816006015560e082015181600701555050600560008473ffffffffffffffffffffffffffffffffffffffff1673ffffffffffffffffffffffffffffffffffffffff1681526020019081526020016000206040518060c001604052808573ffffffffffffffffffffffffffffffffffffffff1681526020013373ffffffffffffffffffffffffffffffffffffffff1681526020018360038111156112505761124f612bde565b5b81526020013481526020014281526020016000815250908060018154018082558091505060019003906000526020600020906005020160009091909190915060008201518160000160006101000a81548173ffffffffffffffffffffffffffffffffffffffff021916908373ffffffffffffffffffffffffffffffffffffffff16021790555060208201518160010160006101000a81548173ffffffffffffffffffffffffffffffffffffffff021916908373ffffffffffffffffffffffffffffffffffffffff16021790555060408201518160010160146101000a81548160ff0219169083600381111561134857611347612bde565b5b0217905550606082015181600201556080820151816003015560a0820151816004015550506001600260003373ffffffffffffffffffffffffffffffffffffffff1673ffffffffffffffffffffffffffffffffffffffff16815260200190815260200160002060008282546113bd9190613424565b925050819055506001600360008573ffffffffffffffffffffffffffffffffffffffff1673ffffffffffffffffffffffffffffffffffffffff16815260200190815260200160002060008282546114149190613424565b92505081905550611424336128a5565b50505050565b6000600360003373ffffffffffffffffffffffffffffffffffffffff1673ffffffffffffffffffffffffffffffffffffffff16815260200190815260200160002054905090565b60015481565b60008054906101000a900460ff16156114c5576040517f08c379a00000000000000000000000000000000000000000000000000000000081526004016114bc906138d4565b60405180910390fd5b60016000806101000a81548160ff02191690831515021790555060005b6009805490508110156118c357600060098281548110611505576115046131f0565b5b9060005260206000200160009054906101000a900473ffffffffffffffffffffffffffffffffffffffff1690506000600560008373ffffffffffffffffffffffffffffffffffffffff1673ffffffffffffffffffffffffffffffffffffffff168152602001908152602001600020905060005b81805490508110156118ad576000828281548110611599576115986131f0565b5b90600052602060002090600502019050600260038111156115bd576115bc612bde565b5b60038111156115cf576115ce612bde565b5b8160010160149054906101000a900460ff1660038111156115f3576115f2612bde565b5b14801561161157506203f480816003015461160e9190613424565b42115b156118995760008160000160009054906101000a900473ffffffffffffffffffffffffffffffffffffffff1673ffffffffffffffffffffffffffffffffffffffff16826002015460405161166490613374565b60006040518083038185875af1925050503d80600081146116a1576040519150601f19603f3d011682016040523d82523d6000602084013e6116a6565b606091505b50509050806116ea576040517f08c379a00000000000000000000000000000000000000000000000000000000081526004016116e1906133d5565b60405180910390fd5b6003808111156116fd576116fc612bde565b5b8260010160146101000a81548160ff0219169083600381111561172357611722612bde565b5b02179055504282600401819055506000600460008460010160009054906101000a900473ffffffffffffffffffffffffffffffffffffffff1673ffffffffffffffffffffffffffffffffffffffff1673ffffffffffffffffffffffffffffffffffffffff168152602001908152602001600020905060005b81805490508110156118955760008282815481106117bc576117bb6131f0565b5b90600052602060002090600802019050600260038111156117e0576117df612bde565b5b60038111156117f2576117f1612bde565b5b8160040160009054906101000a900460ff16600381111561181657611815612bde565b5b14801561183457506203f48081600501546118319190613424565b42115b156118815760038081111561184c5761184b612bde565b5b8160040160006101000a81548160ff0219169083600381111561187257611871612bde565b5b02179055504281600601819055505b50808061188d90613458565b91505061179b565b5050505b5080806118a590613458565b915050611578565b50505080806118bb90613458565b9150506114e2565b5060008060006101000a81548160ff021916908315150217905550565b6000600154905090565b60008054906101000a900460ff1615611938576040517f08c379a000000000000000000000000000000000000000000000000000000000815260040161192f906138d4565b60405180910390fd5b60016000806101000a81548160ff02191690831515021790555060005b600880549050811015611d6e57600060088281548110611978576119776131f0565b5b9060005260206000200160009054906101000a900473ffffffffffffffffffffffffffffffffffffffff1690506000600460008373ffffffffffffffffffffffffffffffffffffffff1673ffffffffffffffffffffffffffffffffffffffff168152602001908152602001600020905060005b8180549050811015611d58576000828281548110611a0c57611a0b6131f0565b5b9060005260206000209060080201905060016003811115611a3057611a2f612bde565b5b6003811115611a4257611a41612bde565b5b8160040160009054906101000a900460ff166003811115611a6657611a65612bde565b5b148015611a8457506202a3008160050154611a819190613424565b42115b15611d445760008160020160009054906101000a900473ffffffffffffffffffffffffffffffffffffffff1673ffffffffffffffffffffffffffffffffffffffff168260030154604051611ad790613374565b60006040518083038185875af1925050503d8060008114611b14576040519150601f19603f3d011682016040523d82523d6000602084013e611b19565b606091505b5050905080611b5d576040517f08c379a0000000000000000000000000000000000000000000000000000000008152600401611b54906133d5565b60405180910390fd5b600380811115611b7057611b6f612bde565b5b8260040160006101000a81548160ff02191690836003811115611b9657611b95612bde565b5b02179055504282600601819055506000600660008460000154815260200190815260200160002090506002816008016000828254611bd491906138f4565b925050819055506000600560008560010160009054906101000a900473ffffffffffffffffffffffffffffffffffffffff1673ffffffffffffffffffffffffffffffffffffffff1673ffffffffffffffffffffffffffffffffffffffff168152602001908152602001600020905060005b8180549050811015611d3f576000828281548110611c6657611c656131f0565b5b9060005260206000209060050201905060016003811115611c8a57611c89612bde565b5b6003811115611c9c57611c9b612bde565b5b8160010160149054906101000a900460ff166003811115611cc057611cbf612bde565b5b148015611cde57506202a3008160030154611cdb9190613424565b42115b15611d2b57600380811115611cf657611cf5612bde565b5b8160010160146101000a81548160ff02191690836003811115611d1c57611d1b612bde565b5b02179055504281600401819055505b508080611d3790613458565b915050611c45565b505050505b508080611d5090613458565b9150506119eb565b5050508080611d6690613458565b915050611955565b5060008060006101000a81548160ff021916908315150217905550565b6000600460008373ffffffffffffffffffffffffffffffffffffffff1673ffffffffffffffffffffffffffffffffffffffff1681526020019081526020016000208381548110611dde57611ddd6131f0565b5b906000526020600020906008020190506000600560003373ffffffffffffffffffffffffffffffffffffffff1673ffffffffffffffffffffffffffffffffffffffff1681526020019081526020016000208481548110611e4157611e406131f0565b5b906000526020600020906005020190506203f4808260050154611e649190613424565b421115611ea6576040517f08c379a0000000000000000000000000000000000000000000000000000000008152600401611e9d90613983565b60405180910390fd5b60016003811115611eba57611eb9612bde565b5b8260040160009054906101000a900460ff166003811115611ede57611edd612bde565b5b14611f1e576040517f08c379a0000000000000000000000000000000000000000000000000000000008152600401611f15906139ef565b60405180910390fd5b60008373ffffffffffffffffffffffffffffffffffffffff168360030154604051611f4890613374565b60006040518083038185875af1925050503d8060008114611f85576040519150601f19603f3d011682016040523d82523d6000602084013e611f8a565b606091505b5050905080611fce576040517f08c379a0000000000000000000000000000000000000000000000000000000008152600401611fc5906133d5565b60405180910390fd5b60006003811115611fe257611fe1612bde565b5b8360040160006101000a81548160ff0219169083600381111561200857612007612bde565b5b02179055504283600601819055506000600381111561202a57612029612bde565b5b8260010160146101000a81548160ff021916908360038111156120505761204f612bde565b5b02179055504282600401819055505050505050565b6000806060806060806000806000806000600660008d815260200190815260200160002090508b8160000160009054906101000a900473ffffffffffffffffffffffffffffffffffffffff168260010183600301846004018560020186600501548760060154886007015489600801548780546120e1906136a7565b80601f016020809104026020016040519081016040528092919081815260200182805461210d906136a7565b801561215a5780601f1061212f5761010080835404028352916020019161215a565b820191906000526020600020905b81548152906001019060200180831161213d57829003601f168201915b5050505050975086805461216d906136a7565b80601f0160208091040260200160405190810160405280929190818152602001828054612199906136a7565b80156121e65780601f106121bb576101008083540402835291602001916121e6565b820191906000526020600020905b8154815290600101906020018083116121c957829003601f168201915b505050505096508580546121f9906136a7565b80601f0160208091040260200160405190810160405280929190818152602001828054612225906136a7565b80156122725780601f1061224757610100808354040283529160200191612272565b820191906000526020600020905b81548152906001019060200180831161225557829003601f168201915b50505050509550848054612285906136a7565b80601f01602080910402602001604051908101604052809291908181526020018280546122b1906136a7565b80156122fe5780601f106122d3576101008083540402835291602001916122fe565b820191906000526020600020905b8154815290600101906020018083116122e157829003601f168201915b505050505094509a509a509a509a509a509a509a509a509a509a50509193959799509193959799565b60001515600760003373ffffffffffffffffffffffffffffffffffffffff1673ffffffffffffffffffffffffffffffffffffffff16815260200190815260200160002060009054906101000a900460ff161515146123ba576040517f08c379a00000000000000000000000000000000000000000000000000000000081526004016123b190613a5b565b60405180910390fd5b60008060006006600060015481526020019081526020016000209050338160000160006101000a81548173ffffffffffffffffffffffffffffffffffffffff021916908373ffffffffffffffffffffffffffffffffffffffff1602179055508781600101908161242a9190613c27565b508681600201908161243c9190613c27565b508581600301908161244e9190613c27565b50848160040190816124609190613c27565b508381600501819055508281600601819055508181600701819055506001600760003373ffffffffffffffffffffffffffffffffffffffff1673ffffffffffffffffffffffffffffffffffffffff16815260200190815260200160002060006101000a81548160ff021916908315150217905550600160008154809291906124e790613458565b91905055506124f5336129b1565b5050505050505050565b6000600460003373ffffffffffffffffffffffffffffffffffffffff1673ffffffffffffffffffffffffffffffffffffffff1681526020019081526020016000208381548110612552576125516131f0565b5b906000526020600020906008020190506000600560008473ffffffffffffffffffffffffffffffffffffffff1673ffffffffffffffffffffffffffffffffffffffff16815260200190815260200160002084815481106125b5576125b46131f0565b5b90600052602060002090600502019050600260038111156125d9576125d8612bde565b5b8260040160009054906101000a900460ff1660038111156125fd576125fc612bde565b5b1415801561261d57506203f48082600501546126199190613424565b4211155b61265c576040517f08c379a000000000000000000000000000000000000000000000000000000000815260040161265390613d45565b60405180910390fd5b3373ffffffffffffffffffffffffffffffffffffffff168260020160009054906101000a900473ffffffffffffffffffffffffffffffffffffffff1673ffffffffffffffffffffffffffffffffffffffff16146126ee576040517f08c379a00000000000000000000000000000000000000000000000000000000081526004016126e590613dd7565b60405180910390fd5b60008054906101000a900460ff161561273c576040517f08c379a000000000000000000000000000000000000000000000000000000000815260040161273390613e43565b60405180910390fd5b60016000806101000a81548160ff02191690831515021790555060003373ffffffffffffffffffffffffffffffffffffffff16836003015460405161278090613374565b60006040518083038185875af1925050503d80600081146127bd576040519150601f19603f3d011682016040523d82523d6000602084013e6127c2565b606091505b5050905080612806576040517f08c379a00000000000000000000000000000000000000000000000000000000081526004016127fd906133d5565b60405180910390fd5b60008060006101000a81548160ff0219169083151502179055506000600381111561283457612833612bde565b5b8360040160006101000a81548160ff0219169083600381111561285a57612859612bde565b5b021790555042836006018190555060008260010160146101000a81548160ff021916908360038111156128905761288f612bde565b5b02179055504282600401819055505050505050565b6000805b600880549050811015612943578273ffffffffffffffffffffffffffffffffffffffff16600882815481106128e1576128e06131f0565b5b9060005260206000200160009054906101000a900473ffffffffffffffffffffffffffffffffffffffff1673ffffffffffffffffffffffffffffffffffffffff16036129305760019150612943565b808061293b90613458565b9150506128a9565b50806129ad576008829080600181540180825580915050600190039060005260206000200160009091909190916101000a81548173ffffffffffffffffffffffffffffffffffffffff021916908373ffffffffffffffffffffffffffffffffffffffff1602179055505b5050565b6000805b600980549050811015612a4f578273ffffffffffffffffffffffffffffffffffffffff16600982815481106129ed576129ec6131f0565b5b9060005260206000200160009054906101000a900473ffffffffffffffffffffffffffffffffffffffff1673ffffffffffffffffffffffffffffffffffffffff1603612a3c5760019150612a4f565b8080612a4790613458565b9150506129b5565b5080612ab9576009829080600181540180825580915050600190039060005260206000200160009091909190916101000a81548173ffffffffffffffffffffffffffffffffffffffff021916908373ffffffffffffffffffffffffffffffffffffffff1602179055505b5050565b6000819050919050565b612ad081612abd565b82525050565b6000602082019050612aeb6000830184612ac7565b92915050565b6000604051905090565b600080fd5b600080fd5b612b0e81612abd565b8114612b1957600080fd5b50565b600081359050612b2b81612b05565b92915050565b600073ffffffffffffffffffffffffffffffffffffffff82169050919050565b6000612b5c82612b31565b9050919050565b612b6c81612b51565b8114612b7757600080fd5b50565b600081359050612b8981612b63565b92915050565b60008060408385031215612ba657612ba5612afb565b5b6000612bb485828601612b1c565b9250506020612bc585828601612b7a565b9150509250929050565b612bd881612b51565b82525050565b7f4e487b7100000000000000000000000000000000000000000000000000000000600052602160045260246000fd5b60048110612c1e57612c1d612bde565b5b50565b6000819050612c2f82612c0d565b919050565b6000612c3f82612c21565b9050919050565b612c4f81612c34565b82525050565b600060a082019050612c6a6000830188612ac7565b612c776020830187612bcf565b612c846040830186612c46565b612c916060830185612ac7565b612c9e6080830184612ac7565b9695505050505050565b600081519050919050565b600082825260208201905092915050565b60005b83811015612ce2578082015181840152602081019050612cc7565b60008484015250505050565b6000601f19601f8301169050919050565b6000612d0a82612ca8565b612d148185612cb3565b9350612d24818560208601612cc4565b612d2d81612cee565b840191505092915050565b600061016082019050612d4e600083018e612ac7565b612d5b602083018d612ac7565b612d68604083018c612bcf565b612d75606083018b612bcf565b612d82608083018a612ac7565b612d8f60a0830189612c46565b612d9c60c0830188612ac7565b612da960e0830187612ac7565b612db7610100830186612ac7565b818103610120830152612dca8185612cff565b9050818103610140830152612ddf8184612cff565b90509c9b505050505050505050505050565b600060208284031215612e0757612e06612afb565b5b6000612e1584828501612b7a565b91505092915050565b60008115159050919050565b612e3381612e1e565b82525050565b6000602082019050612e4e6000830184612e2a565b92915050565b6000612e5f82612b31565b9050919050565b612e6f81612e54565b8114612e7a57600080fd5b50565b600081359050612e8c81612e66565b92915050565b60008060408385031215612ea957612ea8612afb565b5b6000612eb785828601612b1c565b9250506020612ec885828601612e7d565b9150509250929050565b600060208284031215612ee857612ee7612afb565b5b6000612ef684828501612b1c565b91505092915050565b6000819050919050565b612f1281612eff565b82525050565b600061014082019050612f2e600083018d612ac7565b612f3b602083018c612bcf565b8181036040830152612f4d818b612cff565b90508181036060830152612f61818a612cff565b90508181036080830152612f758189612cff565b905081810360a0830152612f898188612cff565b9050612f9860c0830187612ac7565b612fa560e0830186612ac7565b612fb3610100830185612ac7565b612fc1610120830184612f09565b9b9a5050505050505050505050565b600080fd5b600080fd5b7f4e487b7100000000000000000000000000000000000000000000000000000000600052604160045260246000fd5b61301282612cee565b810181811067ffffffffffffffff8211171561303157613030612fda565b5b80604052505050565b6000613044612af1565b90506130508282613009565b919050565b600067ffffffffffffffff8211156130705761306f612fda565b5b61307982612cee565b9050602081019050919050565b82818337600083830152505050565b60006130a86130a384613055565b61303a565b9050828152602081018484840111156130c4576130c3612fd5565b5b6130cf848285613086565b509392505050565b600082601f8301126130ec576130eb612fd0565b5b81356130fc848260208601613095565b91505092915050565b600080600080600060a0868803121561312157613120612afb565b5b600086013567ffffffffffffffff81111561313f5761313e612b00565b5b61314b888289016130d7565b955050602086013567ffffffffffffffff81111561316c5761316b612b00565b5b613178888289016130d7565b945050604086013567ffffffffffffffff81111561319957613198612b00565b5b6131a5888289016130d7565b935050606086013567ffffffffffffffff8111156131c6576131c5612b00565b5b6131d2888289016130d7565b92505060806131e388828901612b1c565b9150509295509295909350565b7f4e487b7100000000000000000000000000000000000000000000000000000000600052603260045260246000fd5b7f4f6e6c792074686520637573746f6d65722063616e20636f6e6669726d20746860008201527f6520736572766963650000000000000000000000000000000000000000000000602082015250565b600061327b602983612cb3565b91506132868261321f565b604082019050919050565b600060208201905081810360008301526132aa8161326e565b9050919050565b7f5472616e73616374696f6e20686173206265656e20636f6d706c65746564206160008201527f6c72656164790000000000000000000000000000000000000000000000000000602082015250565b600061330d602683612cb3565b9150613318826132b1565b604082019050919050565b6000602082019050818103600083015261333c81613300565b9050919050565b600081905092915050565b50565b600061335e600083613343565b91506133698261334e565b600082019050919050565b600061337f82613351565b9150819050919050565b7f4661696c656420746f2073656e64204574686572000000000000000000000000600082015250565b60006133bf601483612cb3565b91506133ca82613389565b602082019050919050565b600060208201905081810360008301526133ee816133b2565b9050919050565b7f4e487b7100000000000000000000000000000000000000000000000000000000600052601160045260246000fd5b600061342f82612abd565b915061343a83612abd565b9250828201905080821115613452576134516133f5565b5b92915050565b600061346382612abd565b91507fffffffffffffffffffffffffffffffffffffffffffffffffffffffffffffffff8203613495576134946133f5565b5b600182019050919050565b60006134ab82612eff565b91507f7fffffffffffffffffffffffffffffffffffffffffffffffffffffffffffffff82036134dd576134dc6133f5565b5b600182019050919050565b7f4f6e6c79207468652056656e646f722063616e20636f6e6669726d207365727660008201527f69636520636f6d706c6574656400000000000000000000000000000000000000602082015250565b6000613544602d83612cb3565b915061354f826134e8565b604082019050919050565b6000602082019050818103600083015261357381613537565b9050919050565b7f4f6e6c792074686520437573746f6d65722063616e20636f6e6669726d20736560008201527f727669636520636f6d706c657465640000000000000000000000000000000000602082015250565b60006135d6602f83612cb3565b91506135e18261357a565b604082019050919050565b60006020820190508181036000830152613605816135c9565b9050919050565b7f596f7520617265206e6f7420612076656e646f72000000000000000000000000600082015250565b6000613642601483612cb3565b915061364d8261360c565b602082019050919050565b6000602082019050818103600083015261367181613635565b9050919050565b7f4e487b7100000000000000000000000000000000000000000000000000000000600052602260045260246000fd5b600060028204905060018216806136bf57607f821691505b6020821081036136d2576136d1613678565b5b50919050565b7f56656e646f7220696e64657820646f6573206e6f742065786973740000000000600082015250565b600061370e601b83612cb3565b9150613719826136d8565b602082019050919050565b6000602082019050818103600083015261373d81613701565b9050919050565b7f596f752063616e27742062757920796f7572206f776e2070726f647563740000600082015250565b600061377a601e83612cb3565b915061378582613744565b602082019050919050565b600060208201905081810360008301526137a98161376d565b9050919050565b7f57726f6e6720616d6f756e7420656e7465726564000000000000000000000000600082015250565b60006137e6601483612cb3565b91506137f1826137b0565b602082019050919050565b60006020820190508181036000830152613815816137d9565b9050919050565b7f57726f6e672056656e646f72206164647265737320656e746572656400000000600082015250565b6000613852601c83612cb3565b915061385d8261381c565b602082019050919050565b6000602082019050818103600083015261388181613845565b9050919050565b7f5265656e7472616e637920646574656374656421000000000000000000000000600082015250565b60006138be601483612cb3565b91506138c982613888565b602082019050919050565b600060208201905081810360008301526138ed816138b1565b9050919050565b60006138ff82612eff565b915061390a83612eff565b9250828203905081811260008412168282136000851215161715613931576139306133f5565b5b92915050565b7f596f752063616e206e6f742063616e63656c206e6f7700000000000000000000600082015250565b600061396d601683612cb3565b915061397882613937565b602082019050919050565b6000602082019050818103600083015261399c81613960565b9050919050565b7f43616e27742063616e63656c2061742074686973207374616765000000000000600082015250565b60006139d9601a83612cb3565b91506139e4826139a3565b602082019050919050565b60006020820190508181036000830152613a08816139cc565b9050919050565b7f56656e646f7220616c7265616479206578697374730000000000000000000000600082015250565b6000613a45601583612cb3565b9150613a5082613a0f565b602082019050919050565b60006020820190508181036000830152613a7481613a38565b9050919050565b60008190508160005260206000209050919050565b60006020601f8301049050919050565b600082821b905092915050565b600060088302613add7fffffffffffffffffffffffffffffffffffffffffffffffffffffffffffffffff82613aa0565b613ae78683613aa0565b95508019841693508086168417925050509392505050565b6000819050919050565b6000613b24613b1f613b1a84612abd565b613aff565b612abd565b9050919050565b6000819050919050565b613b3e83613b09565b613b52613b4a82613b2b565b848454613aad565b825550505050565b600090565b613b67613b5a565b613b72818484613b35565b505050565b5b81811015613b9657613b8b600082613b5f565b600181019050613b78565b5050565b601f821115613bdb57613bac81613a7b565b613bb584613a90565b81016020851015613bc4578190505b613bd8613bd085613a90565b830182613b77565b50505b505050565b600082821c905092915050565b6000613bfe60001984600802613be0565b1980831691505092915050565b6000613c178383613bed565b9150826002028217905092915050565b613c3082612ca8565b67ffffffffffffffff811115613c4957613c48612fda565b5b613c5382546136a7565b613c5e828285613b9a565b600060209050601f831160018114613c915760008415613c7f578287015190505b613c898582613c0b565b865550613cf1565b601f198416613c9f86613a7b565b60005b82811015613cc757848901518255600182019150602085019450602081019050613ca2565b86831015613ce45784890151613ce0601f891682613bed565b8355505b6001600288020188555050505b505050505050565b7f596f752063616e206e6f742063616e63656c0000000000000000000000000000600082015250565b6000613d2f601283612cb3565b9150613d3a82613cf9565b602082019050919050565b60006020820190508181036000830152613d5e81613d22565b9050919050565b7f4f6e6c792074686520637573746f6d65722063616e2063616e63656c2074686560008201527f2073657276696365000000000000000000000000000000000000000000000000602082015250565b6000613dc1602883612cb3565b9150613dcc82613d65565b604082019050919050565b60006020820190508181036000830152613df081613db4565b9050919050565b7f526520656e7472616e742063616c6c0000000000000000000000000000000000600082015250565b6000613e2d600f83612cb3565b9150613e3882613df7565b602082019050919050565b60006020820190508181036000830152613e5c81613e20565b905091905056fea26469706673582212201aaabe50b3ec89f9084b8355d603ed1a37b4efcaacef7841e0fcbc3ca541db6e64736f6c63430008110033",
  "linkReferences": {},
  "deployedLinkReferences": {}
}